{
  "contractName": "Loan",
  "abi": [
    {
      "inputs": [
        {
          "internalType": "uint256",
          "name": "_amount",
          "type": "uint256"
        },
        {
          "internalType": "uint256",
          "name": "_interest",
          "type": "uint256"
        },
        {
          "internalType": "uint256",
          "name": "_duration",
          "type": "uint256"
        },
        {
          "internalType": "address payable",
          "name": "_borrower",
          "type": "address"
        },
        {
          "internalType": "address payable",
          "name": "_lender",
          "type": "address"
        }
      ],
      "stateMutability": "nonpayable",
      "type": "constructor"
    },
    {
      "inputs": [],
      "name": "amount",
      "outputs": [
        {
          "internalType": "uint256",
          "name": "",
          "type": "uint256"
        }
      ],
      "stateMutability": "view",
      "type": "function"
    },
    {
      "inputs": [],
      "name": "borrower",
      "outputs": [
        {
          "internalType": "address payable",
          "name": "",
          "type": "address"
        }
      ],
      "stateMutability": "view",
      "type": "function"
    },
    {
      "inputs": [],
      "name": "duration",
      "outputs": [
        {
          "internalType": "uint256",
          "name": "",
          "type": "uint256"
        }
      ],
      "stateMutability": "view",
      "type": "function"
    },
    {
      "inputs": [],
      "name": "end",
      "outputs": [
        {
          "internalType": "uint256",
          "name": "",
          "type": "uint256"
        }
      ],
      "stateMutability": "view",
      "type": "function"
    },
    {
      "inputs": [],
      "name": "interest",
      "outputs": [
        {
          "internalType": "uint256",
          "name": "",
          "type": "uint256"
        }
      ],
      "stateMutability": "view",
      "type": "function"
    },
    {
      "inputs": [],
      "name": "lender",
      "outputs": [
        {
          "internalType": "address payable",
          "name": "",
          "type": "address"
        }
      ],
      "stateMutability": "view",
      "type": "function"
    },
    {
      "inputs": [],
      "name": "state",
      "outputs": [
        {
          "internalType": "enum Loan.State",
          "name": "",
          "type": "uint8"
        }
      ],
      "stateMutability": "view",
      "type": "function"
    },
    {
      "inputs": [],
      "name": "lend",
      "outputs": [],
      "stateMutability": "payable",
      "type": "function"
    },
    {
      "inputs": [],
      "name": "reimburse",
      "outputs": [],
      "stateMutability": "payable",
      "type": "function"
    }
  ],
  "bytecode": "0x608060405260008060006101000a81548160ff021916908360028111156200002c576200002b62000106565b5b02179055503480156200003e57600080fd5b5060405162001038380380620010388339818101604052810190620000649190620001da565b84600181905550836002819055508260048190555081600560006101000a81548173ffffffffffffffffffffffffffffffffffffffff021916908373ffffffffffffffffffffffffffffffffffffffff16021790555080600660006101000a81548173ffffffffffffffffffffffffffffffffffffffff021916908373ffffffffffffffffffffffffffffffffffffffff160217905550505050505062000262565b7f4e487b7100000000000000000000000000000000000000000000000000000000600052602160045260246000fd5b600080fd5b6000819050919050565b6200014f816200013a565b81146200015b57600080fd5b50565b6000815190506200016f8162000144565b92915050565b600073ffffffffffffffffffffffffffffffffffffffff82169050919050565b6000620001a28262000175565b9050919050565b620001b48162000195565b8114620001c057600080fd5b50565b600081519050620001d481620001a9565b92915050565b600080600080600060a08688031215620001f957620001f862000135565b5b600062000209888289016200015e565b95505060206200021c888289016200015e565b94505060406200022f888289016200015e565b93505060606200024288828901620001c3565b92505060806200025588828901620001c3565b9150509295509295909350565b610dc680620002726000396000f3fe6080604052600436106100865760003560e01c8063bcead63e11610059578063bcead63e14610116578063c19d93fb14610141578063c392f7661461016c578063d3927c1514610197578063efbe1c1c146101a157610086565b80630fb5a6b41461008b5780637df1f1b9146100b657806397dffc61146100e1578063aa8c217c146100eb575b600080fd5b34801561009757600080fd5b506100a06101cc565b6040516100ad91906107d9565b60405180910390f35b3480156100c257600080fd5b506100cb6101d2565b6040516100d89190610835565b60405180910390f35b6100e96101f8565b005b3480156100f757600080fd5b50610100610343565b60405161010d91906107d9565b60405180910390f35b34801561012257600080fd5b5061012b610349565b6040516101389190610835565b60405180910390f35b34801561014d57600080fd5b5061015661036f565b60405161016391906108c7565b60405180910390f35b34801561017857600080fd5b50610181610380565b60405161018e91906107d9565b60405180910390f35b61019f610386565b005b3480156101ad57600080fd5b506101b66104eb565b6040516101c391906107d9565b60405180910390f35b60045481565b600560009054906101000a900473ffffffffffffffffffffffffffffffffffffffff1681565b600660009054906101000a900473ffffffffffffffffffffffffffffffffffffffff1673ffffffffffffffffffffffffffffffffffffffff163373ffffffffffffffffffffffffffffffffffffffff1614610288576040517f08c379a000000000000000000000000000000000000000000000000000000000815260040161027f9061093f565b60405180910390fd5b60015447146102cc576040517f08c379a00000000000000000000000000000000000000000000000000000000081526004016102c3906109ab565b60405180910390fd5b6102d660016104f1565b600560009054906101000a900473ffffffffffffffffffffffffffffffffffffffff1673ffffffffffffffffffffffffffffffffffffffff166108fc6001549081150290604051600060405180830381858888f19350505050158015610340573d6000803e3d6000fd5b50565b60015481565b600660009054906101000a900473ffffffffffffffffffffffffffffffffffffffff1681565b60008054906101000a900460ff1681565b60025481565b600560009054906101000a900473ffffffffffffffffffffffffffffffffffffffff1673ffffffffffffffffffffffffffffffffffffffff163373ffffffffffffffffffffffffffffffffffffffff1614610416576040517f08c379a000000000000000000000000000000000000000000000000000000000815260040161040d90610a17565b60405180910390fd5b6002546001546104269190610a66565b3414610467576040517f08c379a000000000000000000000000000000000000000000000000000000000815260040161045e90610b2e565b60405180910390fd5b61047160026104f1565b600660009054906101000a900473ffffffffffffffffffffffffffffffffffffffff1673ffffffffffffffffffffffffffffffffffffffff166108fc6002546001546104bd9190610a66565b9081150290604051600060405180830381858888f193505050501580156104e8573d6000803e3d6000fd5b50565b60035481565b6000600281111561050557610504610850565b5b81600281111561051857610517610850565b5b1415610559576040517f08c379a000000000000000000000000000000000000000000000000000000000815260040161055090610bc0565b60405180910390fd5b60008054906101000a900460ff16600281111561057957610578610850565b5b81600281111561058c5761058b610850565b5b14156105cd576040517f08c379a00000000000000000000000000000000000000000000000000000000081526004016105c490610c2c565b60405180910390fd5b600160028111156105e1576105e0610850565b5b8160028111156105f4576105f3610850565b5b14156106ad576000600281111561060e5761060d610850565b5b60008054906101000a900460ff16600281111561062e5761062d610850565b5b1461066e576040517f08c379a000000000000000000000000000000000000000000000000000000000815260040161066590610c98565b60405180910390fd5b60016000806101000a81548160ff0219169083600281111561069357610692610850565b5b0217905550600454426106a69190610a66565b6003819055505b6002808111156106c0576106bf610850565b5b8160028111156106d3576106d2610850565b5b14156107bd57600160028111156106ed576106ec610850565b5b60008054906101000a900460ff16600281111561070d5761070c610850565b5b1461074d576040517f08c379a000000000000000000000000000000000000000000000000000000000815260040161074490610d04565b60405180910390fd5b600354421015610792576040517f08c379a000000000000000000000000000000000000000000000000000000000815260040161078990610d70565b60405180910390fd5b60026000806101000a81548160ff021916908360028111156107b7576107b6610850565b5b02179055505b50565b6000819050919050565b6107d3816107c0565b82525050565b60006020820190506107ee60008301846107ca565b92915050565b600073ffffffffffffffffffffffffffffffffffffffff82169050919050565b600061081f826107f4565b9050919050565b61082f81610814565b82525050565b600060208201905061084a6000830184610826565b92915050565b7f4e487b7100000000000000000000000000000000000000000000000000000000600052602160045260246000fd5b600381106108905761088f610850565b5b50565b60008190506108a18261087f565b919050565b60006108b182610893565b9050919050565b6108c1816108a6565b82525050565b60006020820190506108dc60008301846108b8565b92915050565b600082825260208201905092915050565b7f6f6e6c79206c656e6465722063616e206c656e64000000000000000000000000600082015250565b60006109296014836108e2565b9150610934826108f3565b602082019050919050565b600060208201905081810360008301526109588161091c565b9050919050565b7f63616e206f6e6c79206c656e642074686520657861637420616d6f756e740000600082015250565b6000610995601e836108e2565b91506109a08261095f565b602082019050919050565b600060208201905081810360008301526109c481610988565b9050919050565b7f6f6e6c7920626f72726f7765722063616e207265696d62757273650000000000600082015250565b6000610a01601b836108e2565b9150610a0c826109cb565b602082019050919050565b60006020820190508181036000830152610a30816109f4565b9050919050565b7f4e487b7100000000000000000000000000000000000000000000000000000000600052601160045260246000fd5b6000610a71826107c0565b9150610a7c836107c0565b9250827fffffffffffffffffffffffffffffffffffffffffffffffffffffffffffffffff03821115610ab157610ab0610a37565b5b828201905092915050565b7f626f72726f776572206e65656420746f207265696d627572736520657861637460008201527f6c7920616d6f756e74202b20696e746572657374000000000000000000000000602082015250565b6000610b186034836108e2565b9150610b2382610abc565b604082019050919050565b60006020820190508181036000830152610b4781610b0b565b9050919050565b7f737461746520697320616c726561647920696e20612070656e64696e6720737460008201527f6174650000000000000000000000000000000000000000000000000000000000602082015250565b6000610baa6023836108e2565b9150610bb582610b4e565b604082019050919050565b60006020820190508181036000830152610bd981610b9d565b9050919050565b7f7472616e736974696f6e2073746174652063616e6e6f742062652073616d6500600082015250565b6000610c16601f836108e2565b9150610c2182610be0565b602082019050919050565b60006020820190508181036000830152610c4581610c09565b9050919050565b7f7374617465206973206e6f742070656e64696e67000000000000000000000000600082015250565b6000610c826014836108e2565b9150610c8d82610c4c565b602082019050919050565b60006020820190508181036000830152610cb181610c75565b9050919050565b7f7374617465206973206e6f742061637469766500000000000000000000000000600082015250565b6000610cee6013836108e2565b9150610cf982610cb8565b602082019050919050565b60006020820190508181036000830152610d1d81610ce1565b9050919050565b7f6c6f616e20686173206e6f74206d617475726564207965740000000000000000600082015250565b6000610d5a6018836108e2565b9150610d6582610d24565b602082019050919050565b60006020820190508181036000830152610d8981610d4d565b905091905056fea2646970667358221220ef43347047e4ec2197ad6e1a8f84282c469b167457184a9f59aabf071e988f2964736f6c634300080b0033",
  "immutableReferences": {},
  "source": "//SPDX-License-Identifier: UNLICENSED \npragma solidity >=0.5.0 <0.9.0;\n\ncontract Loan { enum State { PENDING, ACTIVE, CLOSED } State public state = State.PENDING; uint256 public amount; uint256 public interest; uint256 public end; uint256 public duration; address payable public borrower; address payable public lender;\n\nconstructor(\n    uint256 _amount,\n    uint256 _interest,\n    uint256 _duration,\n    address payable _borrower,\n    address payable _lender\n) {\n    amount = _amount;\n    interest = _interest;\n    duration = _duration;\n    borrower = _borrower;\n    lender = _lender;\n}\n\nfunction lend() external payable {\n    require(msg.sender == lender, \"only lender can lend\");\n    require(\n        address(this).balance == amount,\n        \"can only lend the exact amount\"\n    );\n    changeState(State.ACTIVE);\n    borrower.transfer(amount);\n}\n\nfunction reimburse() external payable {\n    require(msg.sender == borrower, \"only borrower can reimburse\");\n    require(\n        msg.value == amount + interest,\n        \"borrower need to reimburse exactly amount + interest\"\n    );\n    changeState(State.CLOSED);\n    lender.transfer(amount + interest);\n}\n\nfunction changeState(State to) internal {\n    require(to != State.PENDING, \"state is already in a pending state\");\n    require(to != state, \"transition state cannot be same\");\n    if (to == State.ACTIVE) {\n        require(state == State.PENDING, \"state is not pending\");\n        state = State.ACTIVE;\n        end = block.timestamp + duration; //33+100 = 133 // 33+2 =35\n    }\n    if (to == State.CLOSED) {\n        require(state == State.ACTIVE, \"state is not active\");\n        require(block.timestamp >= end, \"loan has not matured yet\"); //35 <133 //35 =35\n        state = State.CLOSED;\n    }\n}\n}",
  "sourcePath": "C:\\Users\\harshita saxena\\OneDrive\\Desktop\\Lab4\\contracts\\Loan.sol",
  "compiler": {
    "name": "solc",
    "version": "0.8.11+commit.d7f03943.Emscripten.clang"
  },
  "schemaVersion": "3.4.4",
  "updatedAt": "2022-07-11T06:34:22.247Z",
  "devdoc": {
    "kind": "dev",
    "methods": {},
    "version": 1
  },
  "userdoc": {
    "kind": "user",
    "methods": {},
    "version": 1
  }
}